:020000040800F2
:10000000B045002085020008CF19000847180008F5
:10001000CD190008E10300083D20000800000000A1
:10002000000000000000000000000000C501000802
:10003000E30300080000000021020008A11B0008E3
:100040009F0200089F0200089F0200089F0200080C
:100050009F0200089F0200089F0200089F020008FC
:100060009F0200089F0200089F0200089F020008EC
:100070009F0200089F0200089F0200089F020008DC
:100080009F0200089F0200089F0200089F020008CC
:100090009F0200089F0200089F0200089F020008BC
:1000A0009F020008791C00089F0200089F020008B8
:1000B0009F0200089F0200089F0200089F0200089C
:1000C0009F0200089F0200089F0200089F0200088C
:1000D0009F020008312000089F0200089F020008CC
:1000E0009F0200089F0200089F0200089F0200086C
:1000F0009F0200089F0200089F0200089F0200085C
:100100009F0200089F0200089F0200089F0200084B
:100110009F0200089F0200089F0200089F0200083B
:100120009F0200089F0200089F0200089F0200082B
:100130009F0200089F0200089F0200089F0200081B
:100140009F0200089F0200089F0200089F0200080B
:100150009F0200089F0200089F0200089F020008FB
:100160009F0200089F0200089F0200089F020008EB
:100170009F0200089F0200089F0200080000000084
:100180009F0200089F0200089F0200089F020008CB
:100190009F0200089F0200089F0200089F020008BB
:1001A0009F0200089F0200089F020008DFF810D09D
:1001B00000F004F9004800470D220008AFF300806A
:1001C000B04500202C4B19680868B0E8F04F80F368
:1001D0000988BFF36F8F4FF0000080F311887047DC
:1001E0000000000008480068006880F308884FF0AD
:1001F000000080F3148862B661B6BFF34F8FBFF37F
:100200006F8F00DF00BF00BF08ED00E0DFF80C00DB
:10021000016841F470010160704700BF88ED00E0A3
:10022000EFF30980BFF36F8F134B1A681EF0100FA6
:1002300008BF20ED108A20E9F04F106009B44FF09C
:10024000500080F31188BFF34F8FBFF36F8F02F020
:1002500083FB4FF0000080F3118809BC196808681F
:10026000B0E8F04F1EF0100F08BFB0EC108A80F31A
:100270000988BFF36F8F704728000020EFF30580D7
:10028000704700000648804706480047FEE7FEE743
:10029000FEE7FEE7FEE7FEE7FEE7FEE7FEE7FEE736
:1002A000691C0008AD0100082DE9F05F054600203B
:1002B00092469B4688460646814640241BE02846D7
:1002C00041464746224600F069F853465A46C01A4E
:1002D000914110D311461846224600F050F82D1ACD
:1002E00067EB01084F4622460120002100F047F845
:1002F00017EB00094E41201EA4F10104DFDC484643
:1003000031462A464346BDE8F09F40EA01039B0779
:1003100003D009E008C9121F08C0042AFAD203E07A
:1003200011F8013B00F8013B521EF9D27047D2B2DE
:1003300001E000F8012B491EFBD270470022F6E7CE
:1003400010B513460A4604461946FFF7F0FF20464B
:1003500010BD30B50B46014600202022012409E0E3
:1003600021FA02F59D4205D303FA02F5491B04FA6E
:1003700002F52844151EA2F10102F1DC30BD202A4D
:1003800004DB203A00FA02F1002070479140C2F1EC
:10039000200320FA03F3194390407047202A04DB1E
:1003A000203A21FA02F00021704721FA02F3D040EE
:1003B000C2F120029140084319467047064C074D90
:1003C00006E0E06840F0010394E807009847103425
:1003D000AC42F6D3FFF7EEFE782D0008982D00080A
:1003E000FEE7704772B6FEE7F0B5D1E907354C6A13
:1003F0000A68C2B102682B4322F4F8421443234333
:100400000360D1E901231A43D1E9033423431A439A
:100410004B6989691A430A4341686FF30E010A4325
:1004200042600020F0BDD1E901263243D1E90367E3
:100430003E4332434E69896932430A431A432A4391
:10044000016822436FF30E010A430260E9E7426943
:1004500043F6FE739A4342EA41014161002070472E
:1004600070B514460546D1E9000210438A686FF062
:100470001F03C96803EB421242EA4121084329697C
:100480006FF315010843286100F04CFA064609E0B5
:10049000601C07D024B100F045FA801BA04201D9AE
:1004A000032070BDA8698006F2D4002070BD000052
:1004B000F0B56FF00F058C8A2E014FEA054ECB6820
:1004C0002F034FF07F4C0EEB04540AB31A03A2F52E
:1004D0008052836822431D4C23401A438260D1E935
:1004E000002305EB0313521E1A438B6806EB03230C
:1004F0001A430B8A097E07EB03431A430CEB016195
:100500000A43C16801F070410A43C2600020F0BD97
:10051000D1E9002E05EB0E15521E2A438D6806EB1D
:1005200005252A430A4D05EB03331A430B8A097E3E
:1005300007EB03431A4322430CEB01610A43816832
:1005400001F070410A438260E0E70000FF0F0FFFF7
:1005500000F0FFFF2DE9F0410446876D00F0E2F95D
:10056000064694F835000025022806D080206065F4
:1005700084F834500120BDE8F0812068016821F042
:10058000160101602068416921F080014161206C01
:1005900008B9A06C20B12068016821F00801016051
:1005A0002068016821F0010101600CE000F0BAF957
:1005B000801B052807D920206065032084F83500BA
:1005C00084F83450D7E720680068C007EED194F86B
:1005D0005C103F208840B860012084F8350084F822
:1005E00034500020C7E790F83510022903D080214D
:1005F000416501207047052180F8351000680168C9
:1006000021F00101016000207047000070B5044630
:1006100000F088F90546601C02D0044800780444C4
:1006200000F080F9401BA042FAD370BD18000020F2
:10063000F0B587B014216846FFF780FE25480168B1
:10064000002944D10121016023480024016841F0C0
:10065000010101600068022500F0010005904FF6DD
:100660003F00CDE9000502AA03260C2782E8D0004E
:1006700069461A4800F03CF80D20CDE9000502AAB1
:10068000694682E8D000164800F032F848F2371088
:10069000CDE9000502AA694682E8D000114800F0C1
:1006A00027F84FF68370CDE9000502AA694682E873
:1006B000D0000D4800F01CF84CF20370CDE90005A5
:1006C00002AA694682E8D000084800F011F807B095
:1006D000F0BD00000C000020383802400014024039
:1006E000000802400018024000100240000C0240C6
:1006F0002DE9F84FDFF8F8A10022012403254FF07F
:100700000F090AF1040BAAF1040E00BF0B6804FAEA
:1007100002F63340B34270D10F7907F00307012F7F
:1007200001D0022F16D187684FEA420805FA08FC6B
:1007300027EA0C07D1F80CC00CFA08FC4CEA070CAD
:10074000C0F808C04768B7430E79C6F30016964054
:100750003E4346600E79F643B6070AD0C7684FEAB3
:10076000420C05FA0CF6B7438E6806FA0CF63E43C7
:10077000C6600E7906F00306022E10D1D60800EBF3
:100780008608D8F8206057074FEAD76C09FA0CF7AB
:10079000BE430F6907FA0CF73743C8F820700668A4
:1007A0004FEA420C05FA0CF7BE430F7907F0030736
:1007B00007FA0CF7374307604E6816F4403F1CD029
:1007C0004C4E376847F480473760366822F003079D
:1007D00006F480460096484E07EB060CDCF80868E5
:1007E00097073F0F09FA07F826EA0806DFF80C8199
:1007F000404503D14FF0000841E072E0DFF800818E
:10080000404502D14FF0010839E0DFF8F88040455B
:1008100002D14FF0020832E0DFF8EC80404502D10F
:100820004FF003082BE0DFF8E480404502D14FF0A1
:10083000040824E0DFF8D880404502D14FF00508D5
:100840001DE0DFF8D080404502D14FF0060816E0E9
:10085000DFF8C480404502D14FF007080FE0DFF811
:10086000BC80404502D14FF0080808E0DFF8B080B6
:10087000404502D14FF0090801E04FF00A0808FA9C
:1008800007F848EA0608CCF80888DAF80060574606
:10089000D1F804C09E435FEACC2C00D51E433E60D5
:1008A000DBF800605F46D1F804C09E435FEA8C2C01
:1008B00000D51E433E60DEF800607746D1F804C0E4
:1008C0009E435FEA8C3C00D51E433E60084F083FC4
:1008D0003E68D1F804C09E435FEACC3C00D51E437D
:1008E0003E60521C102AFFF411AFBDE8F88F0000E3
:1008F000083C014044380240003001400000024002
:100900000004024000080240000C024000100240B7
:100910000014024000180240001C02400020024067
:100920000024024001488068704700001800002041
:1009300002488168027811448160704718000020E5
:100940000B4810B5016841F400710160016841F481
:1009500080610160016841F480710160032000F052
:1009600099F80F2000F006F800F04AF8002010BDBA
:10097000003C024030B505461C4887B000240168A1
:1009800041F001010160006806A900F0010000903B
:1009900001A800F063F900F091F915494000B0FB9F
:1009A000F1F11548134A491E026040F2E732C0E9EE
:1009B0000324C0E90114846100F0D2FB040012D1C9
:1009C0000D4800F0FBFB04000DD1192000F034F8B5
:1009D000102D07D200222946192000F03BF80748C5
:1009E000056000E0012407B0204630BD44380240D5
:1009F00040420F0000000140740400201C00002051
:100A00000C4882B0016841F480410160006800F444
:100A1000804000900748001F016841F0805101604C
:100A20000068002200F0805000900F21901E02B05C
:100A300000F010B844380240002809DB00F01F0223
:100A4000012191404009800000F1E020C0F8001130
:100A500070470000F0B40E4B1B680C46C3F3022332
:100A6000C3F10705042D00D90425191D072901D25A
:100A7000002300E0DB1E012606FA05F1491E214095
:100A800099409E40761E16403143F0BC01F0E8BA12
:100A90000CED00E0064900F0070208684FF6FF037E
:100AA000184040EA0220034A1043086070470000E3
:100AB0000CED00E00000FA052DE9F8431748016845
:100AC00041F0805101600068154F00F08050012610
:100AD00000903E64FFF726FF05464FF47A78114CEC
:100AE00005E000BFFFF71EFF401B40450DD86068C2
:100AF000C003F7D57E64FFF715FF0546464607E0BD
:100B0000FFF710FF401BB04202D90320BDE8F88375
:100B100060688003F4D50020F8E700004038024008
:100B200000000E42007000402DE9F0470E4605001F
:100B300065D0DFF81481D8F80000F7B200F00F009C
:100B4000B04207D288F80070D8F8000000F00F001B
:100B5000B04254D128683D4C810712D5400703D5D7
:100B6000206840F4E05020602878000703D5206812
:100B700040F4604020602068A96820F0F00008433D
:100B800020602878C0072DD03049686808390128CE
:100B900012D0022813D0032811D009688907002930
:100BA0002DDA216821F0030101432160FFF7BAFE2D
:100BB000814641F2883A0EE009688903EFE7096847
:100BC0008901ECE7FFF7AEFEA0EB0901514502D920
:100BD0000320BDE8F0872068696800F00C00B0EBE6
:100BE000810FEFD1D8F80010404601F00F01B1425B
:100BF00007D90770006800F00F00B04201D0012053
:100C0000E7E72878400705D52068E96820F4E05038
:100C1000084320602878000706D52068296920F459
:100C2000604040EAC100206000F058F82168084A9E
:100C3000C1F30311515CC8400649086006480068CA
:100C4000FFF798FE0020C4E7003C0240083802404D
:100C50003C2D0008240000201C0000200F22026010
:100C60000C4A136803F003034360136803F0F003B6
:100C70008360136803F4E053C36012684FF4E053D9
:100C800003EAD20202610448006800F00F00086025
:100C90007047000008380240003C02400448054903
:100CA00000680968044AC1F38221515CC84070475A
:100CB00024000020083802404C2D00080448054953
:100CC00000680968044AC1F34231515CC84070476A
:100CD00024000020083802404C2D0008154810B5AB
:100CE000006810F00C02144813D01449042A0FD0E5
:100CF000082A0ED10F4C241F2268236802F03F02FD
:100D00005B0207D52068C0F38810A0FB010106E054
:100D1000084610BD2168C1F38811A1FB0001002322
:100D2000FFF7C2FA2168C1F30141491C4900B0FB39
:100D3000F1F010BD083802400024F40040787D0135
:100D40002DE9F84F04006ED02078DFF84C93C007EF
:100D5000A9F104054AD009F104000168C1F3810139
:100D6000012908D00068C0F3810002280AD1D9F80F
:100D70000000400206D52868800337D56068002847
:100D8000E1D033E06068B0F5803F10D0B0F5A02F1F
:100D9000286810D020F480302860286820F4802053
:100DA00028606068A8B1FFF7BDFD06460DE0286821
:100DB00040F48030F4E740F480202860F7E700BF7B
:100DC000FFF7B0FD801B642873D828688003F7D52F
:100DD0000CE0FFF7A7FD064605E000BFFFF7A2FD08
:100DE000801B6428F0D828688003F7D42078DFF8C7
:100DF000AC8280074FF0000A3ED5A748001D01686D
:100E000011F00C0F08D00068C0F3810002280BD14C
:100E1000D9F80000400207D42868800716D5E0689A
:100E2000012800D112E033E1E068B8B10120C8F830
:100E30000000FFF777FD064605E000BFFFF772FDF3
:100E4000801B0228C0D828688007F7D52868216948
:100E500020F0F80040EAC10028600DE0C8F800A0CA
:100E6000FFF760FD064604E0FFF75CFD801B0228EB
:100E70001FD828688007F7D42078000722D5864F2E
:100E800087486169703771B101210160FFF74AFD40
:100E9000064604E0FFF746FD801B022809D83868A3
:100EA0008007F7D50EE0C0F800A0FFF73BFD06462F
:100EB00005E082E0FFF736FD801B02287DD8386808
:100EC0008007F7D42078400768D5DFF8CCB1002739
:100ED0000BF13C0BDBF80000C0000BD4DBF800107A
:100EE00041F08051CBF80010DBF80000012700F042
:100EF000805000906B4E3068C00510D4306840F4CC
:100F000080703060FFF70EFD009005E0FFF70AFDEE
:100F10000099401A022850D83068C005F6D55E4EB8
:100F2000A0686C3601280FD00528306810D020F05A
:100F300001003060306820F004003060A068B8B173
:100F4000FFF7F0FC00900FE0306840F00100F4E79C
:100F500040F004003060F7E7FFF7E4FC0099411A25
:100F600041F28830814266D830688007F4D50EE0BF
:100F7000FFF7D8FC009007E0FFF7D4FC0099411A76
:100F800041F28830814256D830688007F4D42FB1BE
:100F9000DBF8001021F08051CBF80010A069C8B335
:100FA0003D49091D0968C1F3810102294AD002287F
:100FB000504607D0C8F8600000E03CE0FFF7B2FC04
:100FC00004463BE04746C8F86000FFF7ABFC064626
:100FD00005E000BFFFF7A6FC801B02282BD828687D
:100FE0008001F7D4D4E907010843A16A2E4A4908D1
:100FF00002EB0141626A41EA8211084394F82C1025
:1010000040EA0161C9F8001001203866FFF78AFC48
:10101000044606E03EE000BFFFF784FC001B022808
:1010200009D828688001F7D534E000BFFFF77AFCC3
:10103000001B022802D90320BDE8F88F2868800130
:10104000F4D427E00128F7D0D9F80000E26900F4D1
:10105000800191421CD1226A00F03F01914217D1D8
:1010600047F6C071626A0140B1EB821F10D1A26ADB
:101070004FF0FF3300F4403103EB5202B1EB024F6B
:1010800006D194F82C1000F07060B0EB016F01D025
:101090000120D1E70020CFE704380240000047429A
:1010A000800E4742007000400000FFFF70B50D4603
:1010B000040003D094F82C0010B107E0012070BDAB
:1010C000002084F82D00204600F011F8022084F85A
:1010D0002C00211D2068FFF787F9D4E9000229467A
:1010E000FFF7E6F9012084F82C00002070BDFFF71F
:1010F0009FBA10B5044690F82C00022804D094F84A
:101100002C00012801D0012010BD022084F82C0001
:101110002068FFF79CF9012084F82C00002010BD06
:1011200070B5044690F82C000D46022804D0012822
:1011300003D0052801D0012070BD022084F82C00C6
:101140002068FFF78DF92868022805D05FF00100BC
:1011500084F82C00002070BD0520F9E77047704727
:1011600010B5040003D094F83D0010B107E0012051
:1011700010BD002084F83C00204600F01EF802203C
:1011800084F83D00211D206800F07CFD012084F8DA
:10119000460084F83E0084F83F0084F8400084F85C
:1011A000410084F8420084F8430084F8440084F845
:1011B000450084F83D00002010BD704790F83D10B8
:1011C000012901D001207047022180F83D100168FB
:1011D000CA6842F00102CA6000681149884214D00E
:1011E000B0F1804F11D00F4988420ED00E4988428D
:1011F0000BD00E49884208D00D49884205D00D49D0
:10120000884202D00C49884204D1816801F007016C
:10121000062903D0016841F00101016000207047F8
:10122000000001400004004000080040000C0040A5
:1012300000040140004001400018004070472DE9C3
:10124000F04104460068C66805694FF00007A90729
:1012500013D5B10711D5F91E01610120207720684F
:1012600080698007204602D0FFF7E8FF04E000F025
:101270007EF8204600F07CF82777680716D57007BF
:1012800014D521686FF004000861022020772068DF
:10129000806910F4407F204602D0FFF7CFFF04E0C2
:1012A00000F065F8204600F063F82777280715D589
:1012B000300713D521686FF00800086104202077FB
:1012C0002068C0698007204602D0FFF7B7FF04E01E
:1012D00000F04DF8204600F04BF82777E80616D5C9
:1012E000F00614D521686FF01000086108202077FF
:1012F0002068C06910F4407F204602D0FFF79EFFAF
:1013000004E000F034F8204600F032F82777E807D0
:1013100008D0F00706D021686FF001000861204670
:1013200000F028F8280608D5300606D521686FF0A9
:10133000800008612046FFF711FF680608D5700697
:1013400006D521686FF040000861204600F01CF8C7
:10135000A8060AD5B00608D521686FF020000861FC
:101360002046BDE8F041FFF7FABEBDE8F0817047C6
:101370007047000000680349884201D1FFF7D8BADE
:10138000704700000000014070477047704710F838
:10139000411F407808437047F8B501680446086863
:1013A000CA684B6910F00F0F4FF0000559D003F0D9
:1013B000010602F49077374365D0C10705D0D10507
:1013C00003D5616C41F001016164410705D5D9077E
:1013D00003D0616C41F002016164810705D5D90732
:1013E00003D0616C41F004016164010707D502F08C
:1013F0002001314303D0616C41F008016164616CEC
:1014000000293AD0800604D5900602D5204600F087
:10141000D4FC20684069616CC0F38010090700D4D7
:1014200060B3204600F0A2FC20684069400621D548
:101430002068143050E8001F21F0400140E80012FD
:10144000002AF5D1E06BA8B16E490165E06BFFF7AA
:10145000CAF8002811D0E06B016D01B0BDE8F04082
:10146000084783060FD593060DD52046BDE8F84002
:1014700000F0A3BC2046FFF789FFF8BD2046FFF728
:1014800085FF6564F8BD266B2023012E7DD1C6063D
:101490007BD5D60679D508684868009048694FF032
:1014A0000206400641D5E16B086840680004000C64
:1014B000E8D0A28D8242E5D9E085C869B0F5807F89
:1014C0002DD020680C3050E8001F21F4807140E8D6
:1014D0000012002AF5D12068143050E8001F21F0D6
:1014E000010140E80012002AF5D12068143050E8CC
:1014F000001F21F0400140E80012002AF5D184F8D5
:101500004230256320680C3050E8001F21F01001A4
:1015100040E80012002AF5D1E06BFFF71BF8666384
:10152000A08DE18D401A81B22AE0A08DE18D401A94
:1015300081B2E08D0028A5D00029A3D022680C320A
:1015400052E8000F20F4907042E80007002FF5D118
:101550002068143050E8002F22F0010240E80027F4
:10156000002FF5D184F84230256320680C3050E814
:10157000002F22F0100240E80023002BF5D1666313
:101580002046FFF702FFF8BDFFE705062BD515063D
:1015900029D594F841002128F5D1A068B0F5805FE5
:1015A00001D12069B0B1206A411C21622168007814
:1015B0004860E08C401E0004000CE084E3D1206809
:1015C000C16821F08001C1602068C16841F040011C
:1015D000C160D8E7206A0088C0F308004860206A2C
:1015E000801C2062E5E74006CDD55006CBD5CA6801
:1015F000204622F04002CA6084F8413000F022F90F
:10160000C1E700005D1D000870B5040004D094F827
:101610004100002510B106E0012070BD84F8405063
:10162000204600F023F8242084F841002068C16897
:1016300021F40051C160204600F020FC20680169BF
:1016400021F4904101612068416921F02A01416142
:101650002068C16841F40051C1606564202084F8AD
:10166000410084F842006563002070BD10B586B06B
:10167000044614216846FEF761FE18492068884236
:1016800029D117480021026842F010020260006868
:1016900000F01000059012481438026842F0010270
:1016A0000260006800F0010005904FF4C0600090F7
:1016B0000220CDE901010320039007200490694630
:1016C0000848FFF715F8002205212520FFF7C2F989
:1016D0002520FFF7B1F906B010BD00000010014051
:1016E000443802400000024090F84230202B01D0E4
:1016F0000220704721B11AB10023036300F044BCFB
:10170000012070472DE9F04100681E49884231D11F
:101710001D4C00258E1520784FF6FF77FF280BD340
:10172000257031461948FEF709FE3B460F2218A1E5
:101730001B4800F037F81DE0144962780A54401C39
:10174000C2B28818227010F8011C0A2912D110F8B0
:10175000020C0D280ED13B460C49114800F022F82E
:101760000F48FFF714FE2128FAD0257031460748AC
:10177000FEF7E4FDBDE8F04103490122491C084899
:10178000FFF7B2BF00100140140000202C0300201E
:1017900044617461206F766572666C6F770D0A0024
:1017A0002C0400202DE9F843044690F841009846A7
:1017B00016460D46202802D00220BDE8F88385B1E8
:1017C0007EB100206064212084F84100FFF7AAF870
:1017D000A6848146E684A0682027B0F5805F02D009
:1017E00003E00120E9E7206910B12E4600250EE054
:1017F00000260CE08021204600F0E1FBA8B9C6B12C
:1018000016F8010B21684860E08C401EE084E08CF3
:101810004B464FF00002CDF800800028EAD14FF08F
:101820004001204600F0CBFB40B184F8417003201A
:10183000C3E735F8020BC0F30800E3E784F8417012
:101840000020BAE77047FEE700B587B01C21684664
:10185000FEF774FD16481549012201600021C0E918
:1018600001120822C26010220261402242614FF43C
:10187000C072C0E906214FF4006202625200C0E962
:1018800009210220072105228DE807000391032189
:10189000CDE90410069069460548FFF707FC0028CB
:1018A00001D0FEF79FFD07B000BD0000400100A081
:1018B000F802002010B596B000F08AF81C221149F9
:1018C0006846FEF722FD0021684600F0C5FC0E4C7C
:1018D0000C491C2220601C3107A8FEF716FD0021D0
:1018E00007A800F0B9FC074960601C2238310EA837
:1018F000FEF70BFD00210EA800F0AEFCA06016B0B4
:1019000010BD0000E82C0008000000201D4808B5AC
:10191000016841F004010160016801F004010091D7
:10192000016841F020010160016801F0200100918F
:10193000016841F080010160016801F080010091BF
:10194000016841F040010160016801F0400100912F
:10195000016841F010010160016801F0100100917F
:10196000016841F008010160016801F0080100917F
:10197000016841F001010160006800F00100009081
:1019800008BD0000303802400E4810B50C49016017
:101990004FF4E1314160002181600C22C160C0E957
:1019A00004128161C161FFF72FFE08B1FEF71AFD35
:1019B000BDE81040012204490248FFF795BE00002F
:1019C000001001402C04002015000020FEE7FEE777
:1019D000024901F1100000F003B80000E802002005
:1019E0002DE9F8430C460025012610270095C4E98F
:1019F0000067C4E902654FF4805881464246FFF70C
:101A00008FFB052000F07AF80220C4E90007C4E942
:101A10000265424621464846FFF782FB0320C4E99F
:101A200000070820C4E90205424621464846FFF760
:101A300077FB40F2312004210090C4E90017C4E98B
:101A40000260424621464846FFF76AFB4846BDE829
:101A5000F84340F2F921FFF74CBB000070B50024B9
:101A6000214620A000F0ECFA4FF080756000A0F154
:101A700080400480641CAC42F8D3214619A000F0D9
:101A8000DFFA00204100A1F18041098882B28A4238
:101A900003D015A000F0D4FA1CE0401CA842F1D3FA
:101AA000002421460FA000F0CBFA4FF0007500BFD4
:101AB000A4F180400470641CAC42F9D3214609A013
:101AC00000F0BEFA5FF00000A0F180410978C2B2D8
:101AD0008A4201D0012070BD401CA842F4D30020EE
:101AE00070BD000025640A00534452414D207465C6
:101AF0007374206572726F720D0A000001B581B0B7
:101B00000449019848430090002801D0401EFAE79C
:101B10000CBD0000400D0300012000F091FBFBE72D
:101B2000FFF79CFF08B107A000E00BA000F088FAC7
:101B30004FF47A740DA000F083FA204600F080FB89
:101B4000F8E70000534452414D20746573742065DA
:101B500072726F720D0A0000534452414D20746539
:101B60007374204F4B212121210D0A00537461729F
:101B7000745461736B30320D0A0000004FF47A74B4
:101B800003A000F05DFA204600F05AFBF8E70000E1
:101B900053746172745461736B30330D0A0000002A
:101BA00010B5502080F31188BFF34F8FBFF36F8FB4
:101BB00000F0D2FF18B104494FF0805008600020B7
:101BC00080F3118810BD000004ED00E070B592B004
:101BD00030216846FEF7B2FB14210CA8FEF7AEFBDD
:101BE0001F480025016841F080510160006800F045
:101BF000805011901B48016841F440410160006829
:101C0000022400F440401190012000900004019053
:101C10008001CDE906400F260896D820CDE90904B9
:101C200004200B906846FFF78BF808B172B6FEE708
:101C3000FEF742FF08B172B6FEE74FF4A050CDE9BF
:101C40000E504FF48050CDE90C64109005210CA883
:101C5000FEF76AFF002801D072B6FEE712B070BD31
:101C600040380240007000400248016841F47001B1
:101C70000160704788ED00E00148FFF7E0BA00001E
:101C800074040020F0B50268294C2A4D2A4E2B4FCF
:101C90002B4B4FF0804CA04209D0604507D0A842A2
:101CA00005D0B04203D0B84201D0984204D122F00E
:101CB000700E4A6842EA0E02A0421BD0604519D05D
:101CC000A84217D0B04215D0B84213D0984211D0D4
:101CD0001C4DA8420ED01C4DA8420BD01B4DA84253
:101CE00008D01B4DA84205D01A4DA84202D01A4D6B
:101CF000A84203D122F44075CA682A434D6922F0F4
:101D000080022A4302608A68C2620A688262A04234
:101D100001D0984201D10969016301214161016942
:101D2000C90703D0016921F001010161F0BD000084
:101D3000000001400004004000080040000C00408A
:101D400000040140004001400044014000480140BF
:101D500000180040001C00400020004010B5806BBF
:101D60000021C185C184FFF711FB10BD01680C3152
:101D700051E8002F22F4907241E80023002BF5D1A6
:101D80000168143151E8002F22F0010241E80023DC
:101D9000002BF5D1016B012909D101680C3151E803
:101DA000002F22F0100241E80023002BF5D1202162
:101DB00080F8421000210163704708B590F8421086
:101DC000222901D0022008BD82684FF480539A4234
:101DD00001D1016921B1816A9A421BD04AB10AE05E
:101DE0000268816A5268C2F308020A80816A891C0B
:101DF00008E0026972B10268526802F07F020A705C
:101E0000816A491C8162C18D491E0904090CC18582
:101E100003D01BE002685268F1E70168CA6822F04B
:101E20002002CA600168CA6822F48072CA60016830
:101E30004A6922F001024A61202180F84210002103
:101E40004163026B012A03D0FFF75CFC002008BD50
:101E5000016301680C3151E8002F22F0100241E8C3
:101E60000023002BF5D101680A68D20602D50A6862
:101E700049680091818DFFF788FAE7E770B504465D
:101E800000680169E26821F4405111430161216950
:101E9000A068E26908436169114308432168CA6880
:101EA00049F20C639A430243CA6020684169A269FF
:101EB00021F440711143416131492068884202D0C8
:101EC0003049884202D1FEF7F9FE01E0FEF7E6FE56
:101ED000E2690023192164253226B2F5004F6268B9
:101EE00028D0A0FB0101930F9200FEF7DDF9014617
:101EF000B0FBF5F06FF01802504301EB800006EBE9
:101F00000010B0FBF5F000F0F002B1FBF5F002EBD1
:101F10000012B1FBF5F06FF01803584301EB80009D
:101F200006EB0010B0FBF5F000F00F002168104444
:101F3000886070BDA0FB010192185B41FEF7B4F907
:101F40000146B0FBF5F00201B1FBF5F06FF01803AC
:101F5000584301EB800006EBC000B0FBF5F000F049
:101F6000F80002EB4002B1FBF5F0584301EB8000B2
:101F700006EBC000B0FBF5F000F00700D6E700006C
:101F8000001001400014014081628285C285002159
:101F90004164222180F84210016921B10168CA68B8
:101FA00042F48072CA6001684A6942F001024A61E3
:101FB0000068C16841F02001C160002070472DE930
:101FC000F843984617460D460446089E24E0701CC8
:101FD00022D0FEF7A7FCA0EB0800B0421AD8CEB181
:101FE0002068C168490717D5802D15D0402D13D022
:101FF0000168C94309070FD40168002540680090B3
:102000002046FFF7B3FE0820606484F840500120AA
:10201000BDE8F8830320FBE72068006835EA00008C
:1020200004D00020B842D2D00020F1E70120F9E727
:102030000148FFF7B1B900002C040020FEE70000C2
:102040000FB4054B10B503A9044A029800F028F814
:1020500010BC5DF814FB0000F52100089000002082
:102060000907090E002804DB00F1E02080F80014C5
:10207000704700F00F0000F1E02080F8141D704759
:1020800002E008C8121F08C1002AFAD17047704741
:10209000002001E001C1121F002AFBD1704700009F
:1020A0002DE9FF4F89B09B460446002506E0252810
:1020B0000BD05A460B999047641C6D1C2078002861
:1020C000F5D10DB02846BDE8F08F0027B8460122B3
:1020D000474900E0074314F8013F203B02FA03F0B0
:1020E0000842F7D120782E2819D114F8010F47F0B3
:1020F00004072A280ED06FF02F022078A0F13001BB
:1021000009290CD808EB880102EB410100EB01081A
:10211000641CF2E70A98641C50F8048B0A9020783B
:102120000028CED0642808D0692806D075281ED093
:102130005A460B9990476D1C58E00A994FF00A09CE
:1021400001C90A91002802DA40422D2102E0390536
:1021500004D52B218DF82010012103E0F90704D0CC
:102160002021F7E78A4608AE0DE00021FAE70A9938
:102170004FF00A0901C90A91F7E74946FEF7E9F865
:10218000303106F8011D0028F7D1ADEB060000F153
:102190002009780701D44FF00108C84502DDA8EBFB
:1021A000090000E000208046002706E008A85A4603
:1021B000C05D0B9990476D1C7F1C5745F6DB04E012
:1021C00030205A460B9990476D1CB8F10001A8F1D8
:1021D0000108F5DC05E016F8010B5A460B9990470B
:1021E0006D1CB9F10001A9F10109F4DC641C65E77B
:1021F0000928010013B54FF6FF7301226946024812
:10220000FFF7D0FA00981CBD2C040020FEF798FBC5
:10221000FFF7DCFCFFF77AFBFFF7B6FBFFF714FBD9
:10222000FFF748FB00F013F84FF4FA742046FEF76E
:10223000EDF9FBE701460020842900D0C81C704757
:1022400010B500B9012000F023FB002010BD10B52F
:1022500000F044FB002010BD7FB50D4604464169E7
:10226000B0F9080081B1A16971B1FFF7E3FFD4E9CA
:1022700005128DE80700D4E900102B46226900F012
:1022800040FC039004B070BDFFF7D4FF03A9CDE973
:102290000001208A2B4682B2D4E9001000F004FC31
:1022A000012801D00020EDE70398EBE72DE9F0418C
:1022B000184C0F460546E6682068001D00F020FA1D
:1022C00038B9206890F82C1001208840216981439A
:1022D0002161681C07D137B12168BDE8F0410E4883
:1022E000091D00F051BA20683544B54245602168A7
:1022F00005D2A06BBDE8F041091D00F02DBA606B5E
:10230000091D00F029FAA06A854200D2A562BDE845
:10231000F081000028000020980500202DE9F04100
:10232000054600F03DFA2E4CA068401CA0602068D5
:102330002C4F10B1606940B32DE02560A0680128E2
:1023400029D1002606EB860007EB800000F0F6F9A5
:10235000761C072EF6D323488C3000F0EFF9214885
:10236000A03000F0EBF91F48B43000F0E7F91D4849
:10237000C83000F0E3F91B48DC3000F0DFF9194801
:102380008C3060631430A06305E02068E96AC06A9D
:10239000884200D82560606A401C6062E96A0120BA
:1023A000226988401043206101EB810007EB800027
:1023B000291D00F0E9F900F013FA606900280CD03B
:1023C0002068E96AC06A884207D207494FF0805006
:1023D0000860BFF34F8FBFF36F8FBDE8F08100003F
:1023E00028000020BC04002004ED00E010B50446E5
:1023F00090F8510058B101280CD002280FD050207D
:1024000080F31188BFF34F8FBFF36F8FFEE7206B10
:1024100000F0FAF92046BDE8104000F0F5B910BD13
:1024200010484FF47051420706D0C01D0D4920F0EE
:102430000700411AC1F570510B4A00230144C2E95B
:1024400000030839183A21F0070111604B600B6056
:102450000B1AC0E9001393604FF0004053605061C5
:1024600070470000AC0500207C000020144E154C85
:10247000A6F1C8074FF08058DFF84C9012E000BF7B
:1024800000F08EF9F068C568281D00F039F9A068E1
:10249000401EA0606068401E606000F0A1F9284600
:1024A000FFF7A4FF60680028EAD138680128F9D94D
:1024B000C9F80080BFF34F8FBFF36F8FF2E70000C2
:1024C000840500202800002004ED00E02DE9F047FD
:1024D0009A46DDE9098481466FF00303206B03EB24
:1024E00082021044089E20F00707780707D050208A
:1024F00080F31188BFF34F8FBFF36F8FFEE7002586
:1025000061B1002023180A5C83F834200A5C12B100
:10251000401C1028F6D384F8435001E084F834506E
:10252000072E00D30626E662C4E91165201D00F0DF
:1025300010F904F1180000F00CF92461C6F107004D
:102540006462A061E56484F85050524649463846BA
:1025500000F0C0F82060B8F1000F01D0C8F80040CA
:10256000BDE8F08730B5114900E011460A688242A3
:10257000FBD34B685C18844203D140681844486020
:10258000084643681C18944209D1084C183C24683A
:10259000A24209D052681A4442600A681268026076
:1025A000814200D0086030BD0460F9E77C00002063
:1025B0000648416B096829B1416BC968C968496817
:1025C000816270474FF0FF31FAE7000028000020D9
:1025D00008484068401C4FF0500080F3118804D038
:1025E000BFF34F8FBFF36F8FFEE7BFF34F8FBFF384
:1025F0006F8FFEE7840000202DE9F041054600279B
:1026000000F0A2F9324E306808B9FFF709FF70698F
:1026100005424ED1C5B3083568070ED005F0070056
:10262000C0F108000544680707D0502080F31188E6
:10263000BFF34F8FBFF36F8FFEE72DB370688542F6
:1026400037D82348183001460C6801E020460C4674
:102650006168A94202D221680029F7D131688C4211
:1026600027D007682168016060680837411B10297E
:102670000FD96019420708D0502080F31188BFF3AA
:102680004F8FBFF36F8FFEE713E041606560FFF788
:1026900069FF61687068401A7060B268904200D249
:1026A000B060706901430020C4E90001F068401C7B
:1026B000F06000F0B7FA780707D0502080F3118857
:1026C000BFF34F8FBFF36F8FFEE73846BDE8F08151
:1026D0006400002010B5031F4FF080741C601B1FA6
:1026E00021F001011960191F044B0B6014390A60B5
:1026F000091F6FF0020244380A6010BDD12500089E
:10270000D0E9013201699A60D0E901235A604A6830
:10271000824201D182684A60002202610868401E3C
:102720000860086870470000034B036003F1540021
:1027300008608020106070479400002000F10801BC
:102740004FF0FF32C0E90112C16001610021016058
:10275000704700210161704730B50B685A1C02D0E8
:1027600000F1080202E0026904E02246546825688C
:102770009D42FAD953684B6099608A605160086144
:102780000168491C016030BD42684A6093688B60F3
:1027900093685960916008610168491C0160704745
:1027A000502080F31188BFF34F8FBFF36F8F0A491A
:1027B0004868401C486001280CD10848006810F0A7
:1027C000FF0F07D0502080F31188BFF34F8FBFF366
:1027D0006F8FFEE7704700008400002004ED00E0EA
:1027E0000849486828B1401E486001D180F311882B
:1027F0007047502080F31188BFF34F8FBFF36F8F66
:10280000FEE700008400002070B500282AD0164D95
:10281000A0F1080460686969084207D1502080F37C
:102820001188BFF34F8FBFF36F8FFEE722683AB175
:10283000502080F31188BFF34F8FBFF36F8FFEE7F7
:102840008843606000F080F86068696808446860E8
:102850002046FFF787FE2869401C2861BDE87040CC
:1028600000F0E0B970BD0000640000204FF0E020EF
:1028700000210161816105494FF47A720968B1FB59
:10288000F2F1491E416107210161704724000020D7
:1028900010B5020014D00F48006B38B1502080F3FF
:1028A0001188BFF34F8FBFF36F8FFEE700F04CF836
:1028B00000211046FFF7FAFC00F0B4F9002807D118
:1028C00005494FF080500860BFF34F8FBFF36F8F03
:1028D00010BD00002800002004ED00E010B586B017
:1028E0000024039405AA04A903A80494FFF71CFF7D
:1028F000DDE903010094CDE9011000230EA1104889
:10290000059A00F0FEF80F490028C86211D0502047
:1029100080F31188BFF34F8FBFF36F8F4FF0FF30FD
:10292000886201204861CC6006B0BDE8104000F02C
:1029300041B806B010BD000049444C4500000000FD
:102940006D240008280000200248016B491C016327
:1029500070470000280000201448016B11B10121CC
:10296000C16170470021C1610169B1FA81F1C1F112
:102970001F0101EB81020E4951F822306BB101EBCE
:10298000820101F108034A6852684A609A4201D103
:1029900052684A60D16801607047502080F3118806
:1029A000BFF34F8FBFF36F8FFEE7000028000020BA
:1029B000BC0400201CB537480168374A914207D152
:1029C000502080F31188BFF34F8FBFF36F8FFEE766
:1029D00000683149491E884207D1502080F3118890
:1029E000BFF34F8FBFF36F8FFEE72C49087801903C
:1029F000FF20087008788DF800009DF800009DF811
:102A0000002000F0F000904207D0502080F31188A1
:102A1000BFF34F8FBFF36F8FFEE79DF80000204C90
:102A200000F0500020700720A06005E09DF8002015
:102A300052008DF80020401E9DF800201206F5D4AB
:102A4000A060032807D0502080F31188BFF34F8F78
:102A5000BFF36F8FFEE74FF44070A06001980870DD
:102A60000C482030016841F470010160016841F0B8
:102A700070410160FFF7FAFE00206060FDF7C6FBC1
:102A80000848016841F040410160FDF7ABFB0020C0
:102A90001CBD000000ED00E071C20F4100E400E049
:102AA0008400002034EF00E02DE9FF5F8346DDE97C
:102AB0000E87994616468A469000FFF79DFD050051
:102AC0001CD05420FFF798FD040014D0002025638B
:102AD00084F85100CDE90240CDE900874B463246EB
:102AE00051465846FFF7F2FC2046FFF717FC01203D
:102AF00004B0BDE8F09F2846FFF786FE4FF0FF3098
:102B0000F6E7F0B585B0DDE90B640A9DA6B1DCB14E
:102B1000542700972663022684F85160002604AFEC
:102B2000CDE90246CDE90057FFF7D0FC2046FFF77C
:102B3000F5FB049805B0F0BD502080F31188BFF379
:102B40004F8FBFF36F8FFEE7502080F31188BFF3E4
:102B50004F8FBFF36F8FFEE72DE9F0412F4C00261A
:102B6000206B28B1A069401CA0613046BDE8F0810F
:102B7000E5686D1CE56013D1606B006838B15020CA
:102B800080F31188BFF34F8FBFF36F8FFEE7606B49
:102B9000A16B6163A063206A401C2062FFF708FDFF
:102BA000A06ADFF87C80854209D3606B0068A0B121
:102BB000606BC068C7687868854211D2A0622068DF
:102BC000C06A00EB800158F82100012800D90126D5
:102BD000E0690028C9D00126C7E74FF0FF30EDE7D4
:102BE000381DFFF78DFDB86A18B107F11800FFF71F
:102BF00087FDF96A0120226988401043206101EBBA
:102C0000810108EB8100391DFFF7BEFDF86A2168DC
:102C1000C96A8842C9D30126C7E7000028000020FE
:102C2000BC0400202DE9F0472C4D00242746286BDA
:102C300038B1FFF7B5FD286B401E2863286B40B103
:102C400046E0502080F31188BFF34F8FBFF36F8FA2
:102C5000FEE7A968224E0120D1B3A6F1B40980464F
:102C60003068E8B1F068C46804F11800FFF748FD67
:102C7000201DFFF745FDE06A2A6908FA00F11143BB
:102C8000296100EB800109EB8100211DFFF77CFD2C
:102C9000E06A2968C96A8842E2D3C5F81C80DFE788
:102CA0000CB1FFF785FCAC6944B14646FFF754FF11
:102CB00000B1EE61641EF9D10020A861E86938B165
:102CC0000849012738070860BFF34F8FBFF36F8FA4
:102CD000FFF786FD3846BDE8F08700002800002099
:102CE0007005002004ED00E06C2D0008191B0008A1
:102CF0000000000000000000800000000000000054
:102D000000000000542D0008211B0008FDFF0000FA
:102D10000000000080000000000000000000000033
:102D2000602D00087D1B0008FDFF00000000000072
:102D30008000000000000000000000000000000013
:102D4000000000000102030406070809000000005B
:102D5000010203046D795461736B3032000000008E
:102D60006D795461736B30330000000064656661F7
:102D7000756C745461736B00982D0008000000207E
:102D800094000000802000082C2E000894000020F1
:102D90001C4500009020000800000000000000001A
:102DA0000000000000000000000000000000000023
:102DB0000100000010000000000000000024F400EA
:102DC0000000000000000000000000000000000003
:102DD00000000000000000000000000000000000F3
:102DE00000000000000000000000000000000000E3
:102DF00000000000000000000000000000000000D3
:102E000000000000000000000000000000000000C2
:102E100000000000000000000000000000000000B2
:0C2E2000AAAAAAAA0000000000000000FE
:04000005080001AD41
:00000001FF
