:020000040800F2
:100000009046002085020008D3230008AB1E00089C
:10001000D1230008B5030008812900080000000072
:10002000000000000000000000000000C501000802
:10003000B70300080000000021020008E1240008C6
:100040009F0200089F0200089F0200089F0200080C
:100050009F0200089F0200089F0200089F020008FC
:100060009F0200089F0200089F0200089F020008EC
:100070009F0200089F0200089F0200089F020008DC
:100080009F0200089F0200089F0200089F020008CC
:100090009F0200089F0200089F0200089F020008BC
:1000A0009F020008BD2500089F0200089F0200086B
:1000B0009F0200089F0200089F0200089F0200089C
:1000C0009F0200089F0200089F0200089F0200088C
:1000D0009F020008752900089F0200089F0200087F
:1000E0009F0200089F0200089F0200089F0200086C
:1000F0009F0200089F0200089F0200089F0200085C
:100100009F0200089F0200089F0200089F0200084B
:100110009F0200089F0200089F0200089F0200083B
:100120009F0200089F0200089F0200089F0200082B
:100130009F0200089F0200089F0200089F0200081B
:100140009F0200089F0200089F0200089F0200080B
:100150009F0200089F0200089F0200089F020008FB
:100160009F0200089F0200089F0200089F020008EB
:100170009F0200089F0200089F0200080000000084
:100180009F0200089F0200089F0200089F020008CB
:100190009F0200089F0200089F0200089F020008BB
:1001A0009F0200089F0200089F020008DFF810D09D
:1001B00000F0EEF800480047C1290008AFF30080C6
:1001C000904600202C4B19680868B0E8F04F80F387
:1001D0000988BFF36F8F4FF0000080F311887047DC
:1001E0000000000008480068006880F308884FF0AD
:1001F000000080F3148862B661B6BFF34F8FBFF37F
:100200006F8F00DF00BF00BF08ED00E0DFF80C00DB
:10021000016841F470010160704700BF88ED00E0A3
:10022000EFF30980BFF36F8F134B1A681EF0100FA6
:1002300008BF20ED108A20E9F04F106009B44FF09C
:10024000500080F31188BFF34F8FBFF36F8F02F020
:1002500061FF4FF0000080F3118809BC196808683D
:10026000B0E8F04F1EF0100F08BFB0EC108A80F31A
:100270000988BFF36F8F704728000020EFF30580D7
:10028000704700000648804706480047FEE7FEE743
:10029000FEE7FEE7FEE7FEE7FEE7FEE7FEE7FEE736
:1002A000AD250008AD0100082DE9F05F05460020EE
:1002B00092469B4688460646814640241BE02846D7
:1002C00041464746224600F053F853465A46C01A64
:1002D000914110D311461846224600F03AF82D1AE3
:1002E00067EB01084F4622460120002100F031F85B
:1002F00017EB00094E41201EA4F10104DFDC484643
:1003000031462A464346BDE8F09F40EA01039B0779
:1003100003D009E008C9121F08C0042AFAD203E07A
:1003200011F8013B00F8013B521EF9D27047D2B2DE
:1003300001E000F8012B491EFBD270470022F6E7CE
:1003400010B513460A4604461946FFF7F0FF20464B
:1003500010BD202A04DB203A00FA02F10020704789
:100360009140C2F1200320FA03F3194390407047F3
:10037000202A04DB203A21FA02F00021704721FAFA
:1003800002F3D040C2F12002914008431946704761
:10039000064C074D06E0E06840F0010394E80700D2
:1003A00098471034AC42F6D3FFF704FF3435000809
:1003B00054350008FEE7704772B6FEE7F0B5D1E9A4
:1003C00007354C6A0A68C2B102682B4322F4F8422E
:1003D000144323430360D1E901231A43D1E90334D1
:1003E00023431A434B6989691A430A4341686FF3EF
:1003F0000E010A4342600020F0BDD1E901263243DC
:10040000D1E903673E4332434E69896932430A4367
:100410001A432A43016822436FF30E010A43026024
:10042000E9E7426943F6FE739A4342EA41014161BA
:100430000020704770B514460546D1E9000210430C
:100440008A686FF01F03C96803EB421242EA412138
:10045000084329696FF315010843286100F0EEFA9B
:10046000064609E0601C07D024B100F0E7FA801BC3
:10047000A04201D9032070BDA8698006F2D40020F3
:1004800070BD0000F0B56FF00F058C8A2E014FEAA9
:10049000054ECB682F034FF07F4C0EEB04540AB38C
:1004A0001A03A2F58052836822431D4C23401A434D
:1004B0008260D1E9002305EB0313521E1A438B68B7
:1004C00006EB03231A430B8A097E07EB03431A4307
:1004D0000CEB01610A43C16801F070410A43C2603C
:1004E0000020F0BDD1E9002E05EB0E15521E2A4367
:1004F0008D6806EB05252A430A4D05EB03331A43A5
:100500000B8A097E07EB03431A4322430CEB01617C
:100510000A43816801F070410A438260E0E700000D
:10052000FF0F0FFF00F0FFFF70B590F83820012A91
:1005300024D0012680F83860022280F8392000EBB0
:100540000112148CD369183243EA04451E4C0A2B5D
:1005500016D0092B14D0137B45EA036300290168E8
:1005600013D0CD69A5431D43CD610368116819619E
:1005700051680A291BD0092919D01DE0022070BD3D
:10058000D36803F07F432B43E8E74D6AA5431D433F
:100590004D6203681168996151680A2901D00929DF
:1005A0000AD1D168026821F07F41916204E0D168EC
:1005B000026821F07F41116280F83960002180F8E3
:1005C0003810084670BD00000F0003FF70B504002E
:1005D00004D094F83900002510B106E0012070BD68
:1005E00084F83850204600F01FF8022084F83900C3
:1005F00020680168626821F440311143016020687D
:10060000416BA26821F00701114341632068016C2E
:10061000E2686FF30D0111430164E563012084F882
:100620003900002070BD000008B500680649884206
:1006300008D10648016841F400010160006800F437
:100640000000009008BD000000B0024030380240B9
:100650002DE9F0410446876D00F0F0F9064694F864
:1006600035000025022806D08020606584F83450CB
:100670000120BDE8F0812068016821F016010160C9
:100680002068416921F080014161206C08B9A06CAB
:1006900020B12068016821F008010160206801682C
:1006A00021F0010101600CE000F0C8F9801B052871
:1006B00007D920206065032084F8350084F8345081
:1006C000D7E720680068C007EED194F85C103F209F
:1006D0008840B860012084F8350084F83450002048
:1006E000C7E790F83510022903D080214165012029
:1006F0007047052180F835100068016821F001017C
:10070000016000207047000070B5044600F096F9C3
:100710000546601C02D004480078044400F08EF9BD
:10072000401BA042FAD370BD18000020F0B587B07E
:1007300014216846FFF702FE25480168002944D1CC
:100740000121016023480024016841F0010101609A
:100750000068022500F0010005904FF63F00CDE94A
:10076000000502AA03260C2782E8D00069461A4831
:1007700000F03CF80D20CDE9000502AA694682E8A8
:10078000D000164800F032F848F23710CDE90005E5
:1007900002AA694682E8D000114800F027F84FF617
:1007A0008370CDE9000502AA694682E8D0000D48B1
:1007B00000F01CF84CF20370CDE9000502AA69466E
:1007C00082E8D000084800F011F807B0F0BD000042
:1007D0000C0000203838024000140240000802409B
:1007E0000018024000100240000C02402DE9F84FB2
:1007F000DFF8F8A10022012403254FF00F090AF1C8
:10080000040BAAF1040E00BF0B6804FA02F6334091
:10081000B34270D10F7907F00307012F01D0022FE7
:1008200016D187684FEA420805FA08FC27EA0C0748
:10083000D1F80CC00CFA08FC4CEA070CC0F808C050
:100840004768B7430E79C6F3001696403E434660AC
:100850000E79F643B6070AD0C7684FEA420C05FA8C
:100860000CF6B7438E6806FA0CF63E43C6600E7966
:1008700006F00306022E10D1D60800EB8608D8F841
:10088000206057074FEAD76C09FA0CF7BE430F698F
:1008900007FA0CF73743C8F8207006684FEA420C95
:1008A00005FA0CF7BE430F7907F0030707FA0CF7B8
:1008B000374307604E6816F4403F1CD04C4E3768F3
:1008C00047F480473760366822F0030706F4804615
:1008D0000096484E07EB060CDCF8086897073F0FB8
:1008E00009FA07F826EA0806DFF80C81404503D12B
:1008F0004FF0000841E072E0DFF80081404502D18E
:100900004FF0010839E0DFF8F880404502D14FF0A0
:10091000020832E0DFF8EC80404502D14FF00308D6
:100920002BE0DFF8E480404502D14FF0040824E0DA
:10093000DFF8D880404502D14FF005081DE0DFF810
:10094000D080404502D14FF0060816E0DFF8C480A1
:10095000404502D14FF007080FE0DFF8BC8040456A
:1009600002D14FF0080808E0DFF8B080404502D11E
:100970004FF0090801E04FF00A0808FA07F848EAC2
:100980000608CCF80888DAF800605746D1F804C0A9
:100990009E435FEACC2C00D51E433E60DBF800602E
:1009A0005F46D1F804C09E435FEA8C2C00D51E43FD
:1009B0003E60DEF800607746D1F804C09E435FEAEF
:1009C0008C3C00D51E433E60084F083F3E68D1F87E
:1009D00004C09E435FEACC3C00D51E433E60521CDF
:1009E000102AFFF411AFBDE8F88F0000083C014069
:1009F0004438024000300140000002400004024040
:100A000000080240000C02400010024000140240A6
:100A100000180240001C0240002002400024024056
:100A2000426921EA02030A4043EA024181617047B8
:100A30000AB1816170470904FBE700000148806842
:100A400070470000180000200248816802781144B5
:100A500081607047180000200B4810B5016841F410
:100A600000710160016841F480610160016841F436
:100A700080710160032000F015FA0F2000F006F8E5
:100A800000F0C6F9002010BD003C024030B505461C
:100A90001C4887B00024016841F001010160006832
:100AA00006A900F00100009001A800F009FC00F088
:100AB00037FC15494000B0FBF1F11548134A491EB7
:100AC000026040F2E732C0E90324C0E90114846106
:100AD00000F078FE040012D10D4800F0A1FE0400E1
:100AE0000DD1192000F0B0F9102D07D200222946AF
:100AF000192000F0B7F90748056000E0012407B0AD
:100B0000204630BD4438024040420F000000014002
:100B1000580500201C0000202DE9F041044690F803
:100B2000A00016460F4601281DD0012584F8A050CC
:100B3000022084F8A10006EB860000EBC60004EB5F
:100B4000800034223830FFF7E0FB32463946204639
:100B500001F02AFA2068456284F8A150002084F848
:100B6000A000BDE8F0810220FBE7000070B50400A2
:100B700004D094F8A100002510B106E0012070BD5A
:100B800084F8A050204600F06BF8022084F8A10001
:100B90002068816921F070418161D4E90101084335
:100BA000D4E903121143084321688A69104388611C
:100BB00021688A68294802408A60A18A0A0421685B
:100BC0008B68A669334313438B602168CA6802406F
:100BD000CA60A18B0B042168CA68266A32431A4393
:100BE000CA6021680A6902400A61A18C22680B046C
:100BF0001169A66A31431943116121684A690240AB
:100C00004A61A08D010420684269236B1A430A439C
:100C1000426194F835002168020294F83600CB6AEC
:100C200003F07F43CB622168CB6A94F8346042EAD8
:100C3000004033430343CB622068416B41F006011F
:100C400041632068816941F001018161C4F8A450C9
:100C5000012084F8A100002070BD000000F800F021
:100C600070B592B0044614216846FFF767FB302147
:100C700005A8FFF763FB36492068884265D1082044
:100C80000590002431200E94022509900B9505A8AB
:100C900000F052F908B1FFF78FFB2E48016841F0D0
:100CA00080610160006800F080601190294814386C
:100CB000016841F480710160016801F48071119153
:100CC000016841F020010160016801F020011191EB
:100CD000016841F080010160016801F0800111911B
:100CE000016841F04001016000680E2600F04000FC
:100CF000119040F2F7600090CDE90154CDE9034630
:100D000069461548FFF772FD4FF480600090CDE909
:100D10000154CDE9034669461048FFF767FD4FF4DB
:100D20007E400090CDE90154CDE9034669460C4868
:100D3000FFF75CFD4FF40C600090CDE90154CDE964
:100D4000034669460748FFF751FD12B070BD000029
:100D50000068014044380240002002400014024074
:100D6000001C02400018024070B5044690F8A00034
:100D70000E46012820D0012584F8A050022084F8D6
:100D8000A10003EB830000EBC30004EB800141F8FA
:100D9000386F886A3044C1E90102C86A1044C860EB
:100DA0001A46204601F000F92068456284F8A150F7
:100DB000002084F8A00070BD022070BD70B504460C
:100DC00090F8A0000E46012820D0012584F8A050FC
:100DD000022084F8A10003EB830000EBC30004EBC6
:100DE000800151F8380F3044486088681044C8606A
:100DF000C1E90A621A46204601F0D6F82068456229
:100E000084F8A150002084F8A00070BD022070BDBD
:100E10000C4882B0016841F480410160006800F430
:100E2000804000900748001F016841F08051016038
:100E30000068002200F0805000900F21901E02B048
:100E400000F010B844380240002809DB00F01F020F
:100E5000012191404009800000F1E020C0F800111C
:100E600070470000F0B40E4B1B680C46C3F302231E
:100E7000C3F10705042D00D90425191D072901D246
:100E8000002300E0DB1E012606FA05F1491E214081
:100E900099409E40761E16403143F0BC01F071BD72
:100EA0000CED00E0064900F0070208684FF6FF036A
:100EB000184040EA0220034A1043086070470000CF
:100EC0000CED00E00000FA052DE9F8431748016831
:100ED00041F0805101600068154F00F080500126FC
:100EE00000903E64FFF7AAFD05464FF47A78114C56
:100EF00005E000BFFFF7A2FD401B40450DD860682C
:100F0000C003F7D57E64FFF799FD0546464607E026
:100F1000FFF794FD401BB04202D90320BDE8F883DF
:100F200060688003F4D50020F8E7000040380240F4
:100F300000000E42007000402DE9F84F04460068A2
:100F4000DFF824A2894F8A4DC1074FF001084FF006
:100F5000000603D1810701D4400648D5CAF868606D
:100F6000FFF76CFD814605E0FFF768FDA0EB090087
:100F700002287DD828680001F6D42078C1077D4872
:100F800005D06168227A890141EA02710160217805
:100F9000890711D501686268237B9201C1F3027150
:100FA00042EA036242EA017101603968E26921F0B4
:100FB0001F01521E114339602178490608D5616826
:100FC000227B890141EA0261227A41EA02710160D1
:100FD000CAF86880FFF732FD814605E0FFF72EFD75
:100FE000A0EB0900022843D828680001F6D5206844
:100FF000410701D400074ED5CAF87060FFF71EFD07
:10100000814605E0FFF71AFDA0EB090002282FD862
:101010002868C0438000F5D520784107564814D58C
:1010200001682269237D9201C1F3027142EA0362E1
:1010300042EA017101603968226A6FF0FF0321F40E
:10104000F85103EB0222114339602178090712D5C8
:1010500001682269C1F30361920142EA0161227EC3
:1010600041EA027101603868616A20F4403000E0B2
:1010700051E008433860CAF87080FFF7DFFC07468C
:1010800005E000BFFFF7DAFCC01B022843D8286840
:10109000C0438000F6D42078800653D534484030D1
:1010A000016841F0805101600068344D00F08050CB
:1010B0000090286840F480702860FFF7BFFC074666
:1010C00005E000BFFFF7BAFCC01B022823D8286840
:1010D000C005F7D5274D143D286810F4407020D086
:1010E000218D01F4407181421BD0286820F44071A9
:1010F0002348C0F80080066029602868C00710D027
:10110000FFF79CFC064641F2883707E0FFF796FCA4
:10111000801BB84202D90320BDE8F88F28688007F9
:10112000F4D5A16A1248C1F301220830032A13D072
:10113000016821F4F81101602868218DC1F30B01C9
:10114000084328602078C00604D50E4994F82C0086
:10115000C1F8E0010020DFE702680B4B22F4F8122F
:1011600019400A430260E7E7000047428C3802401A
:101170000038024084380240883802400070004045
:10118000400E474200104742FFFCFF0F2DE9F04799
:101190000E46050065D0DFF81481D8F80000F7B2DC
:1011A00000F00F00B04207D288F80070D8F80000B5
:1011B00000F00F00B04254D128683D4C810712D591
:1011C000400703D5206840F4E050206028780007ED
:1011D00003D5206840F4604020602068A96820F0B2
:1011E000F000084320602878C0072DD03049686897
:1011F0000839012812D0022813D0032811D0096819
:10120000890700292DDA216821F0030101432160BB
:10121000FFF714FC814641F2883A0EE00968890321
:10122000EFE709688901ECE7FFF708FCA0EB09018B
:10123000514502D90320BDE8F0872068696800F0B5
:101240000C00B0EB810FEFD1D8F80010404601F050
:101250000F01B14207D90770006800F00F00B042DB
:1012600001D00120E7E72878400705D52068E96824
:1012700020F4E050084320602878000706D5206855
:10128000296920F4604040EAC100206000F058F86D
:101290002168084AC1F30311515CC840064908603F
:1012A00006480068FFF7F2FB0020C4E7003C02405C
:1012B00008380240F8340008240000201C000020F8
:1012C0000F2202600C4A136803F0030343601368A3
:1012D00003F0F0038360136803F4E053C360126803
:1012E0004FF4E05303EAD20202610448006800F0C0
:1012F0000F0008607047000008380240003C0240C0
:101300000448054900680968044AC1F38221515C18
:10131000C840704724000020083802400835000803
:101320000448054900680968044AC1F34231515C28
:10133000C8407047240000200838024008350008E3
:10134000154810B5006810F00C02144813D0144969
:10135000042A0FD0082A0ED10F4C241F22682368BC
:1013600002F03F025B0207D52068C0F38810A0FBA3
:10137000010106E0084610BD2168C1F38811A1FBF8
:1013800000010023FEF790FF2168C1F30141491CD1
:101390004900B0FBF1F010BD083802400024F40011
:1013A00040787D012DE9F84F04006ED02078DFF8F9
:1013B0004C93C007A9F104054AD009F10400016863
:1013C000C1F38101012908D00068C0F3810002281F
:1013D0000AD1D9F80000400206D52868800337D525
:1013E00060680028E1D033E06068B0F5803F10D03D
:1013F000B0F5A02F286810D020F48030286028682D
:1014000020F4802028606068A8B1FFF717FB06462B
:101410000DE0286840F48030F4E740F48020286034
:10142000F7E700BFFFF70AFB801B642873D8286822
:101430008003F7D50CE0FFF701FB064605E000BF8F
:10144000FFF7FCFA801B6428F0D828688003F7D4E3
:101450002078DFF8AC8280074FF0000A3ED5A7481D
:10146000001D016811F00C0F08D00068C0F3810066
:1014700002280BD1D9F80000400207D42868800761
:1014800016D5E068012800D112E033E1E068B8B178
:101490000120C8F80000FFF7D1FA064605E000BFBA
:1014A000FFF7CCFA801B0228C0D828688007F7D540
:1014B0002868216920F0F80040EAC10028600DE0AA
:1014C000C8F800A0FFF7BAFA064604E0FFF7B6FA3C
:1014D000801B02281FD828688007F7D420780007CF
:1014E00022D5864F87486169703771B1012101604B
:1014F000FFF7A4FA064604E0FFF7A0FA801B0228D3
:1015000009D838688007F7D50EE0C0F800A0FFF7CB
:1015100095FA064605E082E0FFF790FA801B022864
:101520007DD838688007F7D42078400768D5DFF881
:10153000CCB100270BF13C0BDBF80000C0000BD452
:10154000DBF8001041F08051CBF80010DBF8000010
:10155000012700F0805000906B4E3068C00510D419
:10156000306840F480703060FFF768FA009005E062
:10157000FFF764FA0099401A022850D83068C00575
:10158000F6D55E4EA0686C3601280FD0052830686D
:1015900010D020F001003060306820F0040030608E
:1015A000A068B8B1FFF74AFA00900FE0306840F049
:1015B0000100F4E740F004003060F7E7FFF73EFA7F
:1015C0000099411A41F28830814266D8306880071C
:1015D000F4D50EE0FFF732FA009007E0FFF72EFA9D
:1015E0000099411A41F28830814256D8306880070C
:1015F000F4D42FB1DBF8001021F08051CBF80010AB
:10160000A069C8B33D49091D0968C1F381010229D8
:101610004AD00228504607D0C8F8600000E03CE0FD
:10162000FFF70CFA04463BE04746C8F86000FFF7B6
:1016300005FA064605E000BFFFF700FA801B022806
:101640002BD828688001F7D4D4E907010843A16AA0
:101650002E4A490802EB0141626A41EA82110843BD
:1016600094F82C1040EA0161C9F800100120386696
:10167000FFF7E4F9044606E03EE000BFFFF7DEF9BD
:10168000001B022809D828688001F7D534E000BF84
:10169000FFF7D4F9001B022802D90320BDE8F88F18
:1016A00028688001F4D427E00128F7D0D9F8000099
:1016B000E26900F4800191421CD1226A00F03F01EE
:1016C000914217D147F6C071626A0140B1EB821FA7
:1016D00010D1A26A4FF0FF3300F4403103EB520205
:1016E000B1EB024F06D194F82C1000F07060B0EB13
:1016F000016F01D00120D1E70020CFE7043802407C
:1017000000004742800E4742007000400000FFFF8B
:1017100070B50D46040003D094F82C0010B107E01A
:10172000012070BD002084F82D00204600F011F843
:10173000022084F82C00211D2068FEF73FFED4E92A
:1017400000022946FEF79EFE012084F82C000020AE
:1017500070BDFEF7EBBF10B5044690F82C000228D0
:1017600004D094F82C00012801D0012010BD0220E3
:1017700084F82C002068FEF754FE012084F82C0029
:10178000002010BD70B5044690F82C000D460228CC
:1017900004D0012803D0052801D0012070BD02200B
:1017A00084F82C002068FEF745FE2868022805D042
:1017B0005FF0010084F82C00002070BD0520F9E7DF
:1017C0007047704710B5040003D094F83D0010B185
:1017D00007E0012010BD002084F83C00204600F006
:1017E0001EF8022084F83D00211D206800F0ECFE68
:1017F000012084F8460084F83E0084F83F0084F815
:10180000400084F8410084F8420084F8430084F8E2
:10181000440084F8450084F83D00002010BD704766
:1018200090F83D10012901D001207047022180F875
:101830003D100168CA6842F00102CA60006811499F
:10184000884214D0B0F1804F11D00F4988420ED099
:101850000E4988420BD00E49884208D00D49884273
:1018600005D00D49884202D00C49884204D18168D4
:1018700001F00701062903D0016841F00101016070
:1018800000207047000001400004004000080040B4
:10189000000C0040000401400040014000180040DE
:1018A00070472DE9F04104460068C66805694FF0AD
:1018B0000007A90713D5B10711D5F91E0161012051
:1018C0002077206880698007204602D0FFF7E8FF74
:1018D00004E000F07EF8204600F07CF827776807E7
:1018E00016D5700714D521686FF004000861022036
:1018F00020772068806910F4407F204602D0FFF7EF
:10190000CFFF04E000F065F8204600F063F8277789
:10191000280715D5300713D521686FF00800086136
:10192000042020772068C0698007204602D0FFF796
:10193000B7FF04E000F04DF8204600F04BF82777A1
:10194000E80616D5F00614D521686FF0100008617E
:10195000082020772068C06910F4407F204602D01C
:10196000FFF79EFF04E000F034F8204600F032F864
:101970002777E80708D0F00706D021686FF001004C
:101980000861204600F028F8280608D5300606D55C
:1019900021686FF0800008612046FFF711FF68069C
:1019A00008D5700606D521686FF040000861204612
:1019B00000F01CF8A8060AD5B00608D521686FF01B
:1019C000200008612046BDE8F041FFF7FABEBDE8FF
:1019D000F08170477047000000680349884201D1D8
:1019E000FFF732B8704700000000014070477047B1
:1019F000704710F8411F407808437047F8B50168F8
:101A000004460868CA684B6910F00F0F4FF00005D4
:101A100059D003F0010602F49077374365D0C1072F
:101A200005D0D10503D5616C41F001016164410726
:101A300005D5D90703D0616C41F0020161648107CB
:101A400005D5D90703D0616C41F004016164010739
:101A500007D502F02001314303D0616C41F0080149
:101A60006164616C00293AD0800604D5900602D5E5
:101A7000204600F044FE20684069616CC0F380108D
:101A8000090700D460B3204600F012FE20684069C8
:101A9000400621D52068143050E8001F21F0400195
:101AA00040E80012002AF5D1E06BA8B16E4901654B
:101AB000E06BFEF716FE002811D0E06B016D01B05F
:101AC000BDE8F040084783060FD593060DD52046A4
:101AD000BDE8F84000F013BE2046FFF789FFF8BDCF
:101AE0002046FFF785FF6564F8BD266B2023012E95
:101AF0007DD1C6067BD5D60679D5086848680090A2
:101B000048694FF00206400641D5E16B086840681D
:101B10000004000CE8D0A28D8242E5D9E085C869B6
:101B2000B0F5807F2DD020680C3050E8001F21F4E4
:101B3000807140E80012002AF5D12068143050E886
:101B4000001F21F0010140E80012002AF5D12068B1
:101B5000143050E8001F21F0400140E80012002A34
:101B6000F5D184F84230256320680C3050E8001F1E
:101B700021F0100140E80012002AF5D1E06BFEF7D9
:101B800067FD6663A08DE18D401A81B22AE0A08DC9
:101B9000E18D401A81B2E08D0028A5D00029A3D0A4
:101BA00022680C3252E8000F20F4907042E80007DF
:101BB000002FF5D12068143050E8002F22F00102E8
:101BC00040E80027002FF5D184F8423025632068D3
:101BD0000C3050E8002F22F0100240E80023002BC8
:101BE000F5D166632046FFF702FFF8BDFFE7050663
:101BF0002BD5150629D594F841002128F5D1A068E8
:101C0000B0F5805F01D12069B0B1206A411C21622A
:101C1000216800784860E08C401E0004000CE084DD
:101C2000E3D12068C16821F08001C1602068C168EB
:101C300041F04001C160D8E7206A0088C0F3080085
:101C40004860206A801C2062E5E74006CDD550063A
:101C5000CBD5CA68204622F04002CA6084F84130E1
:101C600000F022F9C1E70000A126000870B50400C9
:101C700004D094F84100002510B106E0012070BDA9
:101C800084F84050204600F023F8242084F84100D6
:101C90002068C16821F40051C160204600F090FD29
:101CA0002068016921F4904101612068416921F0B7
:101CB0002A0141612068C16841F40051C160656436
:101CC000202084F8410084F842006563002070BD44
:101CD00010B586B0044614216846FEF72FFB18495C
:101CE0002068884229D117480021026842F010027A
:101CF0000260006800F01000059012481438026875
:101D000042F001020260006800F0010005904FF40B
:101D1000C06000900220CDE901010320039007205C
:101D2000049069460848FEF761FD00220521252040
:101D3000FFF798F82520FFF787F806B010BD0000E0
:101D400000100140443802400000024090F8423048
:101D5000202B01D00220704721B11AB10023036368
:101D600000F0B4BD012070472DE9F04100681E4924
:101D7000884231D11D4C00258E1520784FF6FF7713
:101D8000FF280BD3257031461948FEF7D7FA3B469A
:101D90000F2218A11B4800F037F81DE014496278A3
:101DA0000A54401CC2B28818227010F8011C0A297B
:101DB00012D110F8020C0D280ED13B460C491148E7
:101DC00000F022F80F48FFF714FE2128FAD0257002
:101DD00031460748FEF7B2FABDE8F0410349012257
:101DE000491C0848FFF7B2BF001001401400002052
:101DF0001004002044617461206F766572666C6F18
:101E0000770D0A00100500202DE9F843044690F8EC
:101E10004100984616460D46202802D00220BDE813
:101E2000F88385B17EB100206064212084F84100F0
:101E3000FEF704FEA6848146E684A0682027B0F55C
:101E4000805F02D003E00120E9E7206910B12E464F
:101E500000250EE000260CE08021204600F051FD18
:101E6000A8B9C6B116F8010B21684860E08C401E85
:101E7000E084E08C4B464FF00002CDF80080002853
:101E8000EAD14FF04001204600F03BFD40B184F81C
:101E900041700320C3E735F8020BC0F30800E3E705
:101EA00084F841700020BAE77047FEE708B50021CA
:101EB000009040F2FF3340F25722084600F002F84B
:101EC00008BD0000F8B5A0F25720A2F25722464202
:101ED0005B1A00245242A3F2FF30404287B201EB6A
:101EE00082204FF0404101EB40011C48069DD0F894
:101EF00000C04CF4000CC0F800C0006800F4000002
:101F000000901748D0F800C02CF0010CC0F800C0B9
:101F10004FF4403CC0F800C04FF0020CC0F834C091
:101F20000764C163B11A4FF4803202EB0342491CCB
:101F3000114341648563016841F0010101604FF480
:101F4000001102E0641C8C4202D242689207F9D56B
:101F5000816841F002018160F8BD00003038024024
:101F600000B00240002310B51A4619460948FEF792
:101F7000FBFE00234FF416724FF480610548FEF714
:101F80001DFF00F009F8BDE810404FF0FF30FFF7EB
:101F90008DBF000068030020012220210148FEF7C8
:101FA00047BD000000040240F0B503688C88DD687E
:101FB000C5F30B452C442504882404EBC2141E5998
:101FC00006F470461E5103680F68DE68C6F30B46C0
:101FD000761C3E442E431E5104688B89E568C5F388
:101FE0000A052B441D048C2303EBC213E65806F4A8
:101FF0007046E65004688F68E668C6F30A06761CE9
:102000003E442E43E6509423046803EBC213E55884
:1020100025F00705E55005680C69EC5091F8313062
:102020000C7E1F0226069C24056804EBC21491F85E
:10203000323055F804C04FF0000C45F804C091F858
:10204000305046EA03433D431D4303681D51982326
:10205000046803EBC213E55825F0FF05E550056859
:102060004C69EC50A023046803EBC213E55840F21E
:102070000776B543E550D1E907452C430568EC5098
:10208000AC23046803EBC213E55844F803C00568A9
:102090004C6AEC500B698BB3012B32D0042B32D03D
:1020A000022B30D0032B2ED0072B2CD00123B024B1
:1020B000056804EBC2142E5906F0E0262E51D1E932
:1020C0000065AD1B0E8D5D435E43ED1C45EA064386
:1020D00005682B51B423046803EBC213E5586FF372
:1020E0000A05E5500468C96AE1500068842101EBE3
:1020F000C211425842F001024250F0BDFFE70423F2
:10210000D5E70323D3E70223D1E700000F4810B53A
:102110000D49016000210222C0E90112C160C0E93D
:102120000A1201634163FEF751FA08B1FEF744F960
:1021300001210648FEF7F8F9002803D0BDE8104059
:10214000FEF73AB910BD000000B00240E4020020E2
:1021500000B587B01C216846FEF7F0F8164815490F
:10216000012201600021C0E901120822C260102290
:102170000261402242614FF4C072C0E906214FF46F
:10218000006202625200C0E90921022007210522F3
:102190008DE8070003910321CDE9041006906946FC
:1021A0000548FFF7B5FA002801D0FEF705F907B09A
:1021B00000BD0000400100A03403002010B596B01F
:1021C00000F008F91C2211496846FEF79EF800212C
:1021D000684600F01FFC0E4C0C491C2220601C318C
:1021E00007A8FEF792F8002107A800F013FC0749A2
:1021F00060601C2238310EA8FEF787F800210EA877
:1022000000F008FCA06016B010BD0000A434000867
:102210000000002030B587B014216846FEF78EF824
:102220002D480024016841F004010160016801F0BB
:1022300004010591016841F480710160016801F4B5
:1022400080710591016841F020010160016801F091
:1022500020010591016841F080010160016801F0F1
:1022600080010591016841F002010160016801F0FF
:1022700002010591016841F040010160016801F02F
:1022800040010591016841F010010160016801F011
:1022900010010591016841F008010160016801F039
:1022A00008010591016841F00101016000680B4DD2
:1022B00000F001000590002222212846FEF7B8FB1D
:1022C000222000900120CDE90104694628460394AC
:1022D000FEF78CFA07B030BD3038024000040240EF
:1022E00030B58DB034216846FEF728F826482549D8
:1022F0000024C0E9001484601321C460C0E90441D3
:1023000002259F21C0E906511621016240F29F413A
:10231000416240F26E21816240F23F51C16240F25F
:102320007A21016380F8344080F8354080F83640E7
:10233000FEF71CFC08B1FEF73FF84FF416714FF49E
:102340008060CDE90241CDE90040CDE9064005209D
:10235000FF2108908807CDE90904CDE904518DF8E3
:1023600030408DF831400B948DF8324000226946A0
:102370000548FEF7D1FB002801D0FEF71DF80DB08F
:1023800030BD000000680140680300200E4810B511
:102390000C4901604FF4E1314160002181600C2261
:1023A000C160C0E904128161C161FFF75FFC08B13F
:1023B000FEF702F8BDE81040012204490248FFF789
:1023C000C5BC0000001001401005002015000020D1
:1023D000FEE7FEE7024901F1100000F003B800003B
:1023E000240300202DE9F8430C4600250126102780
:1023F0000095C4E90067C4E902654FF4805881463E
:102400004246FFF7BFF9052000F02AF80220C4E990
:102410000007C4E90265424621464846FFF7B2F983
:102420000320C4E900070820C4E90205424621460A
:102430004846FFF7A7F940F2312004210090C4E993
:102440000017C4E90260424621464846FFF79AF960
:102450004846BDE8F84340F2F921FFF77CB9000097
:1024600001B581B00449019848430090002801D08B
:10247000401EFAE70CBD0000400D0300012000F0F3
:10248000BDFAFBE70A2000F0B9FAFFF76BFD4FF643
:10249000E0752846FFF70AFD0D4E4FF4FA744FF42D
:1024A000784702213046FEF7BBFA2846FFF7FEFCCC
:1024B000204600F0A3FA1F20FFF7F8FC204600F0AA
:1024C0009DFA3846FFF7F2FC204600F097FAE8E75D
:1024D000000402404FF47A74204600F08FFAFBE7C4
:1024E00010B5502080F31188BFF34F8FBFF36F8F6B
:1024F00000F010FF18B104494FF080500860002030
:1025000080F3118810BD000004ED00E030B593B0F9
:1025100030216846FDF712FF14210CA8FDF70EFFCD
:1025200020480025016841F080510160006800F0FA
:10253000805011901C48016841F4404101600068DE
:10254000022400F44040119001200090000401900A
:102550008001CDE9064010200890D820CDE909047B
:1025600004200B906846FEF71DFF08B172B6FEE727
:10257000FEF7AAFC08B172B6FEE70CA90F2081E8AD
:1025800031004FF4A0500F904FF48050109005216F
:102590000CA8FEF7FBFD002801D072B6FEE713B0D1
:1025A00030BD000040380240007000400248016821
:1025B00041F470010160704788ED00E00148FFF7C9
:1025C00070B9000058050020F0B50268294C2A4D6A
:1025D0002A4E2B4F2B4B4FF0804CA04209D0604528
:1025E00007D0A84205D0B04203D0B84201D09842EB
:1025F00004D122F0700E4A6842EA0E02A0421BD0BB
:10260000604519D0A84217D0B04215D0B84213D0B7
:10261000984211D01C4DA8420ED01C4DA8420BD0A0
:102620001B4DA84208D01B4DA84205D01A4DA84208
:1026300002D01A4DA84203D122F44075CA682A4339
:102640004D6922F080022A4302608A68C2620A68E9
:102650008262A04201D0984201D10969016301213F
:1026600041610169C90703D0016921F001010161DC
:10267000F0BD0000000001400004004000080040E0
:10268000000C0040000401400040014000440140B3
:102690000048014000180040001C0040002000409D
:1026A00010B5806B0021C185C184FFF7A1F910BD71
:1026B00001680C3151E8002F22F4907241E80023A8
:1026C000002BF5D10168143151E8002F22F00102EE
:1026D00041E80023002BF5D1016B012909D10168E4
:1026E0000C3151E8002F22F0100241E80023002BAA
:1026F000F5D1202180F8421000210163704708B510
:1027000090F84210222901D0022008BD82684FF4BF
:1027100080539A4201D1016921B1816A9A421BD04A
:102720004AB10AE00268816A5268C2F308020A806C
:10273000816A891C08E0026972B10268526802F07D
:102740007F020A70816A491C8162C18D491E090499
:10275000090CC18503D01BE002685268F1E70168EB
:10276000CA6822F02002CA600168CA6822F4807236
:10277000CA6001684A6922F001024A61202180F89A
:10278000421000214163026B012A03D0FFF7ECFAEB
:10279000002008BD016301680C3151E8002F22F0D0
:1027A000100241E80023002BF5D101680A68D20627
:1027B00002D50A6849680091818DFFF718F9E7E7AB
:1027C00070B5044600680169E26821F44051114384
:1027D00001612169A068E269084361691143084306
:1027E0002168CA6849F20C639A430243CA602068B0
:1027F0004169A26921F44071114341613149206866
:10280000884202D03049884202D1FEF789FD01E0BA
:10281000FEF776FDE2690023192164253226B2F520
:10282000004F626828D0A0FB0101930F9200FDF7D2
:102830003BFD0146B0FBF5F06FF01802504301EB91
:10284000800006EB0010B0FBF5F000F0F002B1FBE9
:10285000F5F002EB0012B1FBF5F06FF018035843EE
:1028600001EB800006EB0010B0FBF5F000F00F006C
:1028700021681044886070BDA0FB010192185B4183
:10288000FDF712FD0146B0FBF5F00201B1FBF5F0DA
:102890006FF01803584301EB800006EBC000B0FB5B
:1028A000F5F000F0F80002EB4002B1FBF5F0584300
:1028B00001EB800006EBC000B0FBF5F000F0070074
:1028C000D6E70000001001400014014081628285BB
:1028D000C28500214164222180F84210016921B1A2
:1028E0000168CA6842F48072CA6001684A6942F0AD
:1028F00001024A610068C16841F02001C160002006
:1029000070472DE9F843984617460D460446089E41
:1029100024E0701C22D0FEF791F8A0EB0800B04232
:102920001AD8CEB12068C168490717D5802D15D0B7
:10293000402D13D00168C94309070FD40168002551
:10294000406800902046FFF7B3FE0820606484F8DA
:1029500040500120BDE8F8830320FBE720680068B1
:1029600035EA000004D00020B842D2D00020F1E7C0
:102970000120F9E70148FFF741B8000010050020E9
:10298000FEE70907090E002804DB00F1E02080F8CB
:102990000014704700F00F0000F1E02080F8141DD3
:1029A000704702E008C8121F08C1002AFAD1704718
:1029B0007047002001E001C1121F002AFBD17047BF
:1029C000FEF74AF8FFF7A2FDFFF724FCFFF7DEFC55
:1029D000FFF7BEFBFFF784FCFFF798FBFFF7EEFB6A
:1029E00000F013F84FF4FA742046FDF78DFEFBE774
:1029F00001460020842900D0C81C704710B500B9DA
:102A0000012000F023FB002010BD10B500F044FBB6
:102A1000002010BD7FB50D4604464169B0F908009D
:102A200081B1A16971B1FFF7E3FFD4E905128DE827
:102A30000700D4E900102B46226900F040FC039007
:102A400004B070BDFFF7D4FF03A9CDE90001208ACF
:102A50002B4682B2D4E9001000F004FC012801D01A
:102A60000020EDE70398EBE72DE9F041184C0F4605
:102A70000546E6682068001D00F020FA38B9206895
:102A800090F82C1001208840216981432161681C45
:102A900007D137B12168BDE8F0410E48091D00F0AB
:102AA00051BA20683544B5424560216805D2A06B13
:102AB000BDE8F041091D00F02DBA606B091D00F062
:102AC00029FAA06A854200D2A562BDE8F081000023
:102AD000280000207C0600202DE9F041054600F08A
:102AE0003DFA2E4CA068401CA06020682C4F10B10D
:102AF000606940B32DE02560A068012829D1002637
:102B000006EB860007EB800000F0F6F9761C072E36
:102B1000F6D323488C3000F0EFF92148A03000F0C4
:102B2000EBF91F48B43000F0E7F91D48C83000F059
:102B3000E3F91B48DC3000F0DFF919488C306063A2
:102B40001430A06305E02068E96AC06A884200D8B2
:102B50002560606A401C6062E96A01202269884041
:102B60001043206101EB810007EB8000291D00F07C
:102B7000E9F900F013FA606900280CD02068E96ACE
:102B8000C06A884207D207494FF080500860BFF3FF
:102B90004F8FBFF36F8FBDE8F08100002800002049
:102BA000A005002004ED00E010B5044690F85100A7
:102BB00058B101280CD002280FD0502080F3118882
:102BC000BFF34F8FBFF36F8FFEE7206B00F0FAF972
:102BD0002046BDE8104000F0F5B910BD10484FF494
:102BE0007051420706D0C01D0D4920F00700411A60
:102BF000C1F570510B4A00230144C2E900030839B2
:102C0000183A21F0070111604B600B600B1AC0E904
:102C1000001393604FF00040536050617047000014
:102C2000900600207C000020144E154CA6F1C80729
:102C30004FF08058DFF84C9012E000BF00F08EF9A2
:102C4000F068C568281D00F039F9A068401EA06032
:102C50006068401E606000F0A1F92846FFF7A4FFFD
:102C600060680028EAD138680128F9D9C9F80080DD
:102C7000BFF34F8FBFF36F8FF2E7000068060020AD
:102C80002800002004ED00E02DE9F0479A46DDE938
:102C9000098481466FF00303206B03EB820210442A
:102CA000089E20F00707780707D0502080F311888E
:102CB000BFF34F8FBFF36F8FFEE7002561B1002098
:102CC00023180A5C83F834200A5C12B1401C1028D7
:102CD000F6D384F8435001E084F83450072E00D333
:102CE0000626E662C4E91165201D00F010F904F122
:102CF000180000F00CF92461C6F107006462A061BD
:102D0000E56484F8505052464946384600F0C0F811
:102D10002060B8F1000F01D0C8F80040BDE8F0878E
:102D200030B5114900E011460A688242FBD34B6876
:102D30005C18844203D140681844486008464368E0
:102D40001C18944209D1084C183C2468A24209D0AE
:102D500052681A4442600A6812680260814200D0D8
:102D6000086030BD0460F9E77C0000200648416B34
:102D7000096829B1416BC968C968496881627047AF
:102D80004FF0FF31FAE700002800002008484068B3
:102D9000401C4FF0500080F3118804D0BFF34F8FD8
:102DA000BFF36F8FFEE7BFF34F8FBFF36F8FFEE769
:102DB000840000202DE9F0410546002700F0A2F92B
:102DC000324E306808B9FFF709FF706905424ED1ED
:102DD000C5B3083568070ED005F00700C0F108003C
:102DE0000544680707D0502080F31188BFF34F8F48
:102DF000BFF36F8FFEE72DB37068854237D8234845
:102E0000183001460C6801E020460C466168A94272
:102E100002D221680029F7D131688C4227D0076897
:102E20002168016060680837411B10290FD96019BB
:102E3000420708D0502080F31188BFF34F8FBFF3B3
:102E40006F8FFEE713E041606560FFF769FF61681F
:102E50007068401A7060B268904200D2B0607069C9
:102E600001430020C4E90001F068401CF06000F05C
:102E7000B7FA780707D0502080F31188BFF34F8F3F
:102E8000BFF36F8FFEE73846BDE8F0816400002095
:102E900010B5031F4FF080741C601B1F21F001014F
:102EA0001960191F044B0B6014390A60091F6FF079
:102EB000020244380A6010BD8D2D0008D0E90132AD
:102EC00001699A60D0E901235A604A68824201D1BF
:102ED00082684A60002202610868401E0860086833
:102EE00070470000034B036003F15400086080202A
:102EF000106070479000002000F108014FF0FF3291
:102F0000C0E90112C1600161002101607047002128
:102F10000161704730B50B685A1C02D000F10802FD
:102F200002E0026904E02246546825689D42FAD90D
:102F300053684B6099608A60516008610168491C60
:102F4000016030BD42684A6093688B609368596045
:102F5000916008610168491C01607047502080F34E
:102F60001188BFF34F8FBFF36F8F0A494868401C29
:102F7000486001280CD10848006810F0FF0F07D006
:102F8000502080F31188BFF34F8FBFF36F8FFEE7A0
:102F9000704700008400002004ED00E00849486804
:102FA00028B1401E486001D180F31188704750203D
:102FB00080F31188BFF34F8FBFF36F8FFEE70000E0
:102FC0008400002070B500282AD0164DA0F1080416
:102FD00060686969084207D1502080F31188BFF307
:102FE0004F8FBFF36F8FFEE722683AB1502080F316
:102FF0001188BFF34F8FBFF36F8FFEE78843606088
:1030000000F080F860686968084468602046FFF74F
:1030100087FE2869401C2861BDE8704000F0E0B9D7
:1030200070BD0000640000204FF0E020002101612D
:10303000816105494FF47A720968B1FBF2F1491ECA
:1030400041610721016170472400002010B5020092
:1030500014D00F48006B38B1502080F31188BFF3B3
:103060004F8FBFF36F8FFEE700F04CF80021104642
:10307000FFF7FAFC00F0B4F9002807D105494FF03A
:1030800080500860BFF34F8FBFF36F8F10BD0000FB
:103090002800002004ED00E010B586B00024039461
:1030A00005AA04A903A80494FFF71CFFDDE90301A6
:1030B0000094CDE9011000230EA11048059A00F0FC
:1030C000FEF80F490028C86211D0502080F3118803
:1030D000BFF34F8FBFF36F8F4FF0FF308862012037
:1030E0004861CC6006B0BDE8104000F041B806B0C1
:1030F00010BD000049444C4500000000292C000888
:10310000280000200248016B491C01637047000041
:10311000280000201448016B11B10121C1617047E2
:103120000021C1610169B1FA81F1C1F11F0101EB17
:1031300081020E4951F822306BB101EB820101F19D
:1031400008034A6852684A609A4201D152684A604C
:10315000D16801607047502080F31188BFF34F8F12
:10316000BFF36F8FFEE7000028000020A0050020BD
:103170001CB537480168374A914207D1502080F387
:103180001188BFF34F8FBFF36F8FFEE7006831499F
:10319000491E884207D1502080F31188BFF34F8F1A
:1031A000BFF36F8FFEE72C4908780190FF2008706D
:1031B00008788DF800009DF800009DF8002000F0D0
:1031C000F000904207D0502080F31188BFF34F8F5A
:1031D000BFF36F8FFEE79DF80000204C00F0500019
:1031E00020700720A06005E09DF8002052008DF8B7
:1031F0000020401E9DF800201206F5D4A060032890
:1032000007D0502080F31188BFF34F8FBFF36F8F2B
:10321000FEE74FF44070A060019808700C48203021
:10322000016841F470010160016841F07041016082
:10323000FFF7FAFE00206060FCF7E8FF084801682D
:1032400041F040410160FCF7CDFF00201CBD0000B3
:1032500000ED00E071C20F4100E400E084000020B6
:1032600034EF00E02DE9FF5F8346DDE90E879946E4
:1032700016468A469000FFF79DFD05001CD054209D
:10328000FFF798FD040014D00020256384F8510056
:10329000CDE90240CDE900874B46324651465846BB
:1032A000FFF7F2FC2046FFF717FC012004B0BDE851
:1032B000F09F2846FFF786FE4FF0FF30F6E7F0B5A7
:1032C00085B0DDE90B640A9DA6B1DCB154270097F7
:1032D0002663022684F85160002604AFCDE9024639
:1032E000CDE90057FFF7D0FC2046FFF7F5FB049827
:1032F00005B0F0BD502080F31188BFF34F8FBFF3AE
:103300006F8FFEE7502080F31188BFF34F8FBFF31C
:103310006F8FFEE72DE9F0412F4C0026206B28B17E
:10332000A069401CA0613046BDE8F081E5686D1CD5
:10333000E56013D1606B006838B1502080F31188CC
:10334000BFF34F8FBFF36F8FFEE7606BA16B6163BD
:10335000A063206A401C2062FFF708FDA06ADFF826
:103360007C80854209D3606B0068A0B1606BC06847
:10337000C7687868854211D2A0622068C06A00EBF5
:10338000800158F82100012800D90126E0690028B1
:10339000C9D00126C7E74FF0FF30EDE7381DFFF732
:1033A0008DFDB86A18B107F11800FFF787FDF96ABB
:1033B0000120226988401043206101EB810108EB64
:1033C0008100391DFFF7BEFDF86A2168C96A88428D
:1033D000C9D30126C7E7000028000020A00500206F
:1033E0002DE9F0472C4D00242746286B38B1FFF714
:1033F000B5FD286B401E2863286B40B146E0502085
:1034000080F31188BFF34F8FBFF36F8FFEE7A9687A
:10341000224E0120D1B3A6F1B40980463068E8B14C
:10342000F068C46804F11800FFF748FD201DFFF79D
:1034300045FDE06A2A6908FA00F11143296100EBB1
:10344000800109EB8100211DFFF77CFDE06A2968FE
:10345000C96A8842E2D3C5F81C80DFE70CB1FFF7E8
:1034600085FCAC6944B14646FFF754FF00B1EE61FC
:10347000641EF9D10020A861E86938B10849012724
:1034800038070860BFF34F8FBFF36F8FFFF786FDDC
:103490003846BDE8F08700002800002054060020D0
:1034A00004ED00E0283500087D240008000000003D
:1034B000000000008000000000000000000000008C
:1034C0001035000885240008FDFF00000000000002
:1034D0008000000000000000000000001C35000813
:1034E000D5240008FDFF000000000000800000005F
:1034F00000000000000000000000000000000000CC
:103500000102030406070809000000000102030489
:103510006D795461736B3032000000006D79546135
:10352000736B30330000000064656661756C745421
:1035300061736B005435000800000020900000000B
:10354000A2290008E4350008900000200046000091
:10355000B229000800000000000000000000000088
:10356000000000000000000000000000010000005A
:1035700010000000000000000024F4000000000023
:10358000000000000000000000000000000000003B
:10359000000000000000000000000000000000002B
:1035A000000000000000000000000000000000001B
:1035B000000000000000000000000000000000000B
:1035C00000000000000000000000000000000000FB
:1035D000000000000000000000000000AAAAAAAA43
:0435E00000000000E7
:04000005080001AD41
:00000001FF
